:040000000EEF00F00F
:040008001FEF11F0E5
:080018000EEF11F046EF11F0AC
:1010000000001850800B216E18501824276E17AE60
:101010000CEF08F00EEF08F00FEF08F027802750D4
:10102000D8B415EF08F017EF08F02AEF08F02728DA
:10103000D8A41DEF08F01FEF08F027EF08F0000E0E
:10104000156E000E166E000E176E000E186E178EBF
:1010500032EF08F0000E156E000E166E000E176EC1
:10106000000E186E1C50800B211A1C501C24226E7E
:101070001BAE3DEF08F03FEF08F040EF08F0228094
:101080002250D8B446EF08F048EF08F05BEF08F0C4
:101090002228D8A44EEF08F050EF08F058EF08F0DF
:1010A000000E196E000E1A6E000E1B6E000E1C6EE6
:1010B0001B8E63EF08F0000E196E000E1A6E000E04
:1010C0001B6E000E1C6E2250D8B469EF08F06BEF57
:1010D00008F073EF08F02750D8A471EF08F073EF11
:1010E00008F07DEF08F0000E156E000E166E000E73
:1010F000176E000E186E13EF0AF01B501502F3CF97
:101100002CF0F4CF2DF02C50236E246A256A266A29
:101110002D50286E296A2A6A2B6A1A501602F3CFBC
:101120002CF0F4CF2DF02C502326000E2422252263
:1011300026222D502826000E29222A222B22195041
:101140001702F3CF2CF0F4CF2DF02C502326000EF5
:101150002422252226222D502826000E29222A224A
:101160002B2225C026F024C025F023C024F0236ABA
:1011700019501602F3CF2CF0F4CF2DF02C5023266B
:101180002D502422000E2522000E26221A50150270
:10119000F3CF2CF0F4CF2DF02C5023262D50242209
:1011A000000E2522000E262225C026F024C025F0A0
:1011B00023C024F0236A19501502F3CF2CF0F4CF8A
:1011C0002DF02C5023262D502422000E2522000E17
:1011D00026221B501602F3CF2CF0F4CF2DF02C500A
:1011E00028262D502922000E2A22000E2B221A50CA
:1011F0001702F3CF2CF0F4CF2DF02C5028262D50D1
:101200002922000E2A22000E2B221B501702F3CF98
:101210002CF0F4CF2DF02C501D6E2D501E6E1F6A39
:10122000206A1FC020F01EC01FF01DC01EF01D6AE6
:101230001D5028261E5029221F502A2220502B22C2
:1012400023C01DF024C01EF025C01FF026C020F0D2
:10125000190E30EF09F0D89020321F321E321D32A5
:10126000E82E2BEF09F01D5028261E5029221F5072
:101270002A2220502B2225C026F024C025F023C08E
:1012800024F0236A225027C01DF01E6A1D26000E7E
:101290001E22820E1D242C6EFF0E1E202D6E66EF68
:1012A00009F0D890283629362A362B3626AE5BEF41
:1012B00009F05DEF09F05EEF09F02880D890233641
:1012C0002436253626362C06D8A02D062AAE6BEFFE
:1012D00009F06DEF09F051EF09F0226A26AE73EFC5
:1012E00009F075EF09F099EF09F0FF0E23141D6E58
:1012F000FF0E24141E6EFF0E25141F6E7F0E261483
:10130000206E1D501E101F102010D8B48AEF09F057
:101310008CEF09F090EF09F0010E226E99EF09F0C1
:1013200028A095EF09F097EF09F099EF09F08CEFFD
:1013300009F02250D8B49FEF09F0A1EF09F0C5EFF2
:1013400009F0010E2826000E29222A222B222BA08A
:10135000ACEF09F0AEEF09F0C5EF09F028C01DF0C1
:1013600029C01EF02AC01FF02BC020F020342032EC
:101370001F321E321D321DC028F01EC029F01FC0B2
:101380002AF020C02BF02C4A2D2A2DBED0EF09F0D8
:101390002D5008E12C28D8A0D0EF09F0D2EF09F0A9
:1013A000DCEF09F0000E286E000E296E800E2A6E0A
:1013B0007F0E2B6E09EF0AF02DBEE9EF09F02D50DC
:1013C00006E12C04D8B0E7EF09F0E9EF09F0F4EFFB
:1013D00009F0000E286E000E296E000E2A6E000E17
:1013E0002B6E216A09EF0AF02CC027F0FF0E281699
:1013F000FF0E29167F0E2A16000E2B1627A003EFCC
:101400000AF005EF0AF006EF0AF02A8ED89027308E
:101410002B6E21502B1228C015F029C016F02AC0BF
:1014200017F02BC018F01200AC0E516E24EC10F027
:101430000001BE6F80B41FEF0AF021EF0AF0CFEF7A
:101440000AF03DEF0AF0000EA06F000EA16F000E33
:10145000A26F000EA36FA0C0A4F0A1C0A5F0A2C00F
:10146000A6F0A3C0A7F0010E586E8A8C8A9E56EF94
:101470000AF08A9C8A8E56EF0AF05850BA6FBB6BFE
:10148000BB51000AD8B447EF0AF056EF0AF0BA5140
:10149000000AD8B423EF0AF0010AD8B435EF0AF0F5
:1014A000030AD8B439EF0AF056EF0AF0BE05D8A403
:1014B0005CEF0AF05EEF0AF01BEF0BF0B2EF0AF000
:1014C000A051B0190FE1A151B1190CE1A251B2190B
:1014D00009E1A351B319D8B470EF0AF072EF0AF022
:1014E000CBEF0AF0B0C0A4F0B1C0A5F0B2C0A6F036
:1014F000B3C0A7F0A4C00FF0A5C010F0A6C011F0B3
:10150000A7C012F0000E9CEC0DF0020E586ECBEF4F
:101510000AF0A451B0190FE1A551B1190CE1A6517F
:10152000B21909E1A751B319D8B499EF0AF09BEFAA
:101530000AF0CBEF0AF0B0C0A0F0B1C0A1F0B2C089
:10154000A2F0B3C0A3F0A0C00FF0A1C010F0A2C0E1
:1015500011F0A3C012F0010E9CEC0DF0010E586EBC
:10156000CBEF0AF05850BA6FBB6BBB51000AD8B42E
:10157000BCEF0AF0CBEF0AF0BA51000AD8B4CBEFB7
:101580000AF0010AD8B460EF0AF0030AD8B489EF70
:101590000AF0CBEF0AF0A9EC11F01BEF0BF0586A40
:1015A0008A9C8A9EBE05D8A4D8EF0AF0DAEF0AF02A
:1015B0001BEF0BF0A451B0190DE1A551B1190AE1CF
:1015C000A651B21907E1A751B319D8A4EAEF0AF05E
:1015D000ECEF0AF0F9EF0AF08B8C8B9AEBEC0FF042
:1015E00007C0A8F008C0A9F009C0AAF00AC0ABF073
:1015F0008A840001A051B0190DE1A151B1190AE18D
:10160000A251B21907E1A351B319D8A40AEF0BF004
:101610000CEF0BF0CBEF0AF08B8A8B9CEBEC0FF00E
:1016200007C0A8F008C0A9F009C0AAF00AC0ABF032
:101630008A94CBEF0AF0EBEC0FF00001A851075CA5
:10164000BA6FA9510858BB6FAA510958BC6FAB516A
:101650000A58BD6FBD510DE1D10EBA5D120EBB59D6
:10166000130EBC59D8A037EF0BF039EF0BF03BEF5E
:101670000BF08B9C8B9A12000F6E0F50D8B443EF77
:101680000BF045EF0BF067EF0BF00ABE4CEF0BF0E1
:101690004AEF0BF067EF0BF007C00BF008C00CF03F
:1016A00009C00DF00AC00EF00B1E0C1E0D1E0E1E02
:1016B0000B2A000E0C220D220E220BC011F00CC0C2
:1016C00012F00DC013F00EC014F06FEF0BF007C056
:1016D00011F008C012F009C013F00AC014F007504E
:1016E000081009100A10D8A478EF0BF07AEF0BF06D
:1016F00084EF0BF0000E076E000E086E000E096EF0
:10170000000E0A6E15EF0CF0960E106E8EEF0BF0B9
:10171000102AD8901432133212321132000E1114E2
:101720000B6E000E12140C6E000E13140D6EFE0ED6
:1017300014140E6E0B500C100D100E10D8A4A3EF45
:101740000BF0A5EF0BF088EF0BF0B3EF0BF0102AC6
:10175000010E1126000E122213221422D8901432E8
:10176000133212321132000E11140B6E000E1214CD
:101770000C6E000E13140D6EFF0E14140E6E0B5033
:101780000C100D100E10D8A4C8EF0BF0CAEF0BF020
:10179000A7EF0BF0D2EF0BF01006D89011361236EF
:1017A0001336143613BED7EF0BF0D9EF0BF0E1EF81
:1017B0000BF0020E1060DFEF0BF0E1EF0BF0CCEF5F
:1017C0000BF010B0E6EF0BF0E8EF0BF0E9EF0BF0E9
:1017D000139ED890103210C00BF00C6A0D6A0E6A7E
:1017E0000BC00EF00D6A0C6A0B6A0B5011120C50F4
:1017F00012120D5013120E5014120F50D8B403EFE2
:101800000CF005EF0CF00DEF0CF00ABE0CEF0CF035
:101810000AEF0CF00DEF0CF0148E11C007F012C09F
:1018200008F013C009F014C00AF01200A1A21BEFC7
:101830000CF01DEF0CF0E0EF0CF0A192BDEC11F0FC
:10184000000E82B0010E016E0101014B022BCC5142
:1018500009E1640ECB5DD8A030EF0CF032EF0CF054
:10186000C1EF0CF0050E006FC1EF0CF00150D8A4D1
:101870003CEF0CF03EEF0CF0D4EF0CF0025107E11E
:10188000640E015DD8B047EF0CF049EF0CF04FEF5C
:101890000CF0000E026F000E016FD4EF0CF0000E82
:1018A000CC6F000ECB6FD890CB35D96ECC35DA6EBD
:1018B000030ED926010EDA2201C1DEFF02C1DDFFCF
:1018C000CB4BCC2B000E026F000E016F030E006F8E
:1018D000D4EF0CF00104D8A470EF0CF072EF0CF010
:1018E000D4EF0CF0D890CB35D96ECC35DA6E030E30
:1018F000D926010EDA2201C1DEFF02C1DDFFCB4B8A
:10190000CC2B000E026F000E016F040E006FD4EF9F
:101910000CF00150D8A48FEF0CF091EF0CF0A8EF71
:101920000CF0D890CB35D96ECC35DA6E030ED926B3
:10193000010EDA2201C1DEFF02C1DDFFCB4BCC2B51
:10194000000E026F000E016F030E006FD4EF0CF05B
:10195000025109E1650E015DD8A0B1EF0CF0B3EFC3
:101960000CF0D4EF0CF0050E006FD4EF0CF001502A
:10197000D8A4BDEF0CF0BFEF0CF0D4EF0CF049EFA2
:101980000CF00051020AD8B436EF0CF0010AD8B4BA
:101990006AEF0CF0070AD8B489EF0CF0010AD8B44A
:1019A000B7EF0CF0D4EF0CF00150D8A4DAEF0CF044
:1019B000DCEF0CF0DFEF0CF08B8EE0EF0CF08B9E89
:1019C0001200C50E4B6E9D0E4C6E1C0E4D6E810EA0
:1019D0004E6E3E50D96EDA6A0C0ED926010EDB50DF
:1019E00007E1060EDE5CD8B0F8EF0CF0FAEF0CF071
:1019F00004EF0DF0000E3E6E000E3F6E000E406EC6
:101A0000000E416E9BEF0DF0000E506E010E4F6EFA
:101A100060EF0DF03E50D96EDA6A0A0ED926DECF9D
:101A200042F0DDCF43F0D8904F34D96E5034DA6EA7
:101A30004250D9264350DA22DECF3AF0DDCF3BF0D8
:101A40004FC044F050C045F0D890443645363E5023
:101A5000D96EDA6A0A0ED926DECF46F0DDCF47F01E
:101A600044504624486E45504720496E040E482491
:101A7000D96E000E4920DA6EDECF3CF0DDCF3DF0AE
:101A800026EC0EF04A6E4BC007F04CC008F04DC07B
:101A900009F04EC00AF0930E0B6E010E0C6E000E94
:101AA0000D6E010E0E6E5AEC10F04A5007184B6E78
:101AB00008504C6E09504D6E0A504E6E4F4A502AD7
:101AC0003E50D96EDA6A0C0ED926020E4F24446EAF
:101AD000000E5020456EDE50445CDE504558D8A0C4
:101AE00074EF0DF076EF0DF00AEF0DF03E50D96E69
:101AF000DA6A040ED9264BC0DEFF4CC0DEFF4DC0B3
:101B0000DEFF4EC0DEFF3E50D96EDA6A080ED926DF
:101B1000200EDE6E000EDD6E3E50D96EDA6AFF0ECC
:101B2000DE6EFF0EDD6E010E3E6E000E3F6E000E8D
:101B3000406E000E416E1200176E1750136E146A3D
:101B4000D89013361436D89013361436030E132457
:101B50000C6E000E14200D6E0FC00EF02CEC11F068
:101B60000FC013F010C014F011C015F012C016F021
:101B700014C013F015C014F016C015F0166A13C087
:101B80000FF014C010F015C011F016C012F017506D
:101B9000136E146AD89013361436D8901336143650
:101BA000020E13240C6E000E14200D6E0FC00EF0EA
:101BB0002CEC11F00FC013F010C014F011C015F090
:101BC00012C016F014C013F015C014F016C015F0B2
:101BD000166A13C00FF014C010F015C011F016C033
:101BE00012F01750136E146AD89013361436D8902A
:101BF00013361436010E13240C6E000E14200D6ED5
:101C00000FC00EF02CEC11F00FC013F010C014F048
:101C100011C015F012C016F014C013F015C014F066
:101C200016C015F0166A13C00FF014C010F015C0DE
:101C300011F016C012F01750040DF3CF0CF0F4CFD2
:101C40000DF00FC00EF02CEC11F012003CC007F0AC
:101C50003DC008F0096A0A6A000E3CEC0BF007C0B0
:101C60002EF008C02FF009C030F00AC031F0CD0EC0
:101C7000196ECC0E1A6E4C0E1B6E3F0E1C6E3AC0C7
:101C800007F03BC008F0096A0A6A000E3CEC0BF052
:101C900007C015F008C016F009C017F00AC018F008
:101CA00001EC08F015C032F016C033F017C034F064
:101CB00018C035F0A8EC0EF0D8B061EF0EF063EF6D
:101CC0000EF066EF0EF0000EA7EF0EF03AC007F030
:101CD0003BC008F0096A0A6A000E3CEC0BF007C032
:101CE0002EF008C02FF009C030F00AC031F0CD0E40
:101CF000196ECC0E1A6E4C0E1B6E3F0E1C6E3CC045
:101D000007F03DC008F0096A0A6A000E3CEC0BF0CF
:101D100007C015F008C016F009C017F00AC018F087
:101D200001EC08F015C032F016C033F017C034F0E3
:101D300018C035F0A8EC0EF0D8B0A1EF0EF0A3EF6C
:101D40000EF0A6EF0EF0020EA7EF0EF0010E12003D
:101D5000000E2E14366E000E2F14376E800E3014C7
:101D6000386E7F0E3114396E3650371038103910F6
:101D7000D8A4BDEF0EF0BFEF0EF0C7EF0EF0000ECF
:101D80002E6E000E2F6E000E306E000E316E000EA5
:101D90003214366E000E3314376E800E3414386EE3
:101DA0007F0E3514396E3650371038103910D8A4DC
:101DB000DCEF0EF0DEEF0EF0E6EF0EF0000E326E0E
:101DC000000E336E000E346E000E356E31AEEBEF4A
:101DD0000EF0EDEF0EF0F6EF0EF02E6C2F1ED8B0D9
:101DE0002F2A301ED8B0302A800E315635AEFBEF88
:101DF0000EF0FDEF0EF006EF0FF0326C331ED8B090
:101E0000332A341ED8B0342A800E3556000E2E1ACE
:101E1000000E2F1A000E301A800E311A000E321AE0
:101E2000000E331A000E341A800E351A32502E5C12
:101E300033502F583450305835503158D8B023EFE4
:101E40000FF025EF0FF028EF0FF0D89029EF0FF0EB
:101E5000D8801200116E1150040DF3CF07F0F4CFAB
:101E600008F05FEC11F00D6E0D50126E136A146ADB
:101E7000156A12C00EF013C00FF014C010F00D6AF6
:101E80000DC012F00EC013F00FC014F010C015F00A
:101E900011500D6E0E6AD8900D360E36D8900D3654
:101EA0000E36010E0D24076E000E0E20086E5FEC3C
:101EB00011F00F6E0F50121212C00EF013C00FF07F
:101EC00014C010F00D6A0DC012F00EC013F00FC058
:101ED00014F010C015F011500D6E0E6AD8900D362A
:101EE0000E36D8900D360E36020E0D24076E000EFB
:101EF0000E20086E5FEC11F00F6E0F50121212C020
:101F00000EF013C00FF014C010F00D6A0DC012F0E7
:101F10000EC013F00FC014F010C015F011500D6E6C
:101F20000E6AD8900D360E36D8900D360E36030E4A
:101F30000D24076E000E0E20086E5FEC11F00F6E80
:101F40000F50121212C009F013C00AF014C00BF0A7
:101F500015C00CF01200F2BCB0EF0FF0B4EF0FF0B0
:101F60000A6A0A2AB5EF0FF00A6AF2BEBAEF0FF05A
:101F7000BDEF0FF0010EBEEF0FF0000E0A100B6E5A
:101F80000850756E07C074FF09C073FF7F9E7F9C69
:101F90007F84F29CF29E550E7E6EAA0E7E6E7F822C
:101FA0007FB2D5EF0FF0D7EF0FF0D0EF0FF0B7AC57
:101FB000DCEF0FF0DEEF0FF0D7EF0FF0B79C0B5018
:101FC000D8B4E5EF0FF0E7EF0FF0E9EF0FF0F28C88
:101FD000F28E7F9412000F6A106AF29A000EF2B429
:101FE000010E0C6ED6CF0DF0D7CF0EF0000EF2B46E
:101FF000010E0B6E0B500C18D8A401EF10F003EF7C
:1020000010F0EEEF0FF00C50D8B409EF10F00BEF1A
:1020100010F016EF10F0F294572A5750D8A413EF8F
:1020200010F015EF10F016EF10F0562A57500F264B
:1020300056501026F28A0DC007F00EC008F00FC0EF
:1020400009F010C00AF012005150D96EDA6A0C0E75
:10205000D926CBC1DEFFCCC1DDFF5150D96EDA6A83
:102060000A0ED926030EDE6E010EDD6E050E01018D
:102070000019D8B43EEF10F040EF10F043EF10F02D
:10208000000E59EF10F051C03EF0E1EC0CF03E5064
:102090003F1040104110D8B450EF10F052EF10F044
:1020A00055EF10F0010E59EF10F0A9EC11F040EFD0
:1020B00010F01200000E0F6E000E106E000E116E6A
:1020C000000E126E07A067EF10F069EF10F071EFCD
:1020D00010F00B500F260C5010220D5011220E50F4
:1020E0001222D8900B360C360D360E36D8900A32A6
:1020F0000932083207320750081009100A10D8A414
:1021000084EF10F086EF10F062EF10F00FC007F0D0
:1021100010C008F011C009F012C00AF01200F29CC1
:10212000F29ED08E000EEEEC10F0B1EC11F00F012B
:102130005D6B5C6B040E926E936A010E946E8A9CCA
:102140008A9E8B9C8B9A8B9E8A948AEC11F0586A9B
:10215000000E2AEC0FF009C0A4F00AC0A5F00BC0D5
:10216000A6F00CC0A7F0010E2AEC0FF009C0A0F0F9
:102170000AC0A1F00BC0A2F00CC0A3F0F28CF28E4A
:102180001200936A946A8A8C8A8E8B8E0001BF6BD0
:10219000C06BC16B8A94C12BC129D8A4D2EF10F0B7
:1021A000D4EF10F0CAEF10F0C02BC029D8A4DBEF99
:1021B00010F0DDEF10F0C9EF10F0BF2B3F0EBF6540
:1021C000E4EF10F0E6EF10F0C8EF10F08FEC10F035
:1021D00014EC0AF0E8EF10F00EEF00F0076E086A5A
:1021E000100E096E082AD89009320950D8A4FBEFC6
:1021F00010F0FDEF10F0F2EF10F008C0D5FFD59C05
:10220000D59AD76AD66A07B002D0F19401D0F1848A
:10221000F294F28AD58E576A566A12005980D8CF46
:1022200004F0E8CF05F0E0CF06F077EC11F006C03F
:10223000E0FF05C0E8FF04C0D8FF599010005982A4
:10224000D9CF02F0DACF03F016EC0CF003C0DAFFBE
:1022500002C0D9FF59921100F250F2500CC007F0A1
:102260000DC008F00EC009F0ABEC0FF00CC007F089
:102270000DC008F05FEC11F00E18D8A442EF11F079
:1022800044EF11F02EEF11F0000E120001EE00F0FD
:10229000CD0EEE6AE806FDE100EE60F05A0EEE6A41
:1022A000E806FDE100EE52F0070EEE6AE806FDE1F9
:1022B00059905992000EF86E0001C1EF10F07FB2F4
:1022C00064EF11F066EF11F05FEF11F00850756EDA
:1022D00007C074FF7F9E7F9C7F807FB072EF11F0FC
:1022E00074EF11F06DEF11F0000073501200F2A4C2
:1022F0007CEF11F07EEF11F089EF11F0F294572A84
:102300005750D8A486EF11F088EF11F089EF11F043
:10231000562A12008B9E020E0101006F000ECC6F38
:10232000000ECB6FF29E9AEC11F0B8EC11F0A08287
:10233000F28E1200A282B1903F0EB116CF0EB116EE
:10234000B196B184B182B09EB8EC11F0A192B18087
:102350001200020E0101006F000ECC6F000ECB6F59
:102360001200556A080E536E000E526EF86A120083
:10237000FC0EB36EDF0EB26E1200FC0EB36EDF0EFB
:04238000B26E120027
:020000040030CA
:0E00000015126650FF8981FF0FC00FE00F4000
:00000001FF
